:060000000A128A11FC2F18
:100A04007808F0007908F100F2018E30FB007B08D1
:100A1400F300F4010A128A11BF257008F800710866
:100A2400F9007208FA000800FD01831203138E0115
:100A34008F0107150330FC00FC0B1E2D83120313DA
:100A44000711871D232D10148719262D10100F0848
:100A5400F9000E08F8000A128A1102250A128A11F6
:100A6400780883120313A3007908A4007A08A50068
:100A74004830A0006B30A1004230A2000A128A1153
:100A840044270A128A11831203132008B000210894
:100A9400B1002208B2000A128A11B6260A128A117B
:100AA400831203133008FC007C08FD0002307D0231
:100AB400031C622D96307D020318622D7D08080008
:100AC4000030080083120313C401BF1F702DBE0938
:100AD400BF09BE0A0319BF0AC401C40AC11F7B2D82
:100AE400C009C109C00A0319C10A0130C200420881
:100AF400C406C501C6013E083F040319B22DC30153
:100B0400C30ABF1B912D01300310BE0DBF0DFF3E64
:100B1400031D862D0130C2004208C307832D013016
:100B24000310C50DC60DFF3E031D922D3F08410263
:100B3400031D9E2D3E084002031CA72D3E08C00243
:100B44003F08031CC103C102451401300310BF0C4C
:100B5400BE0CFF3E031DA82D0130C302031D912DC1
:100B640044080319BA2DC509C609C50A0319C60ADA
:100B74004608BF004508BE00080073080319C72DC6
:100B8400720871047004031DDA2D0030F000003087
:100B9400F1000030F20008000130F5007508F30799
:100BA40001300310F20CF10CF00CFF3E031DD32DA9
:100BB400FE3072050319F52DCE2D0130F5007508B0
:100BC400F3070130F007003003180130F10700305B
:100BD40003180130F20701300310F20CF10CF00C91
:100BE400FF3E031DEE2DFF3072050319082EDF2D85
:100BF40002307302031C0A2E0130F3020130031089
:100C0400F00DF10DF20DFF3E031D012EF11FFA2D23
:100C14007318122EFF30F0057F30F105FF30F20516
:100C24000310F30C7308F500F601F70110300310FC
:100C3400F50DF60DF70DFF3E031D192E7508F00492
:100C44007608F1047708F204740803190800F2170F
:100C5400080083120313CA01831603138601831247
:100C64000313860183160313071183120313071159
:100C74008316031387158312031310129012901016
:100C8400053083120313BE000030BF000A128A111C
:100C940016250A128A1183120313C700C8014708D4
:100CA400C0004808C1000A128A1164250A128A1178
:100CB400831203133E08C9004908CA004A03031DEE
:100CC400722E013086000230C9004530C800A930B8
:100CD400C700C70B6B2EC80B6B2EC90B6B2E722E65
:100CE4000230831203134A06031D872E0330860045
:100CF4000230C9004530C800A930C700C70B802E98
:100D0400C80B802EC90B802E872E03308312031349
:100D14004A06031D9C2E073086000230C900453068
:100D2400C800A930C700C70B952EC80B952EC90B58
:100D3400952E9C2E0430831203134A06031DB22EF3
:100D44000F3086000230C9004530C800A930C70002
:100D5400C70BAA2EC80BAA2EC90BAA2EB12E422E3F
:100D6400831203138601422E831203133008B40046
:100D74003108B5003208B6000310350D360DB70042
:100D84003708BD003D08031DD02E0030B3000030ED
:100D9400B2000030B1000030B00008003008B400E8
:100DA4003108B5003208B60017300310B60CB50C84
:100DB400B40CFF3E031DD72E3408B7003708B80023
:100DC400B117FF30B005FF30B1050030B20530086F
:100DD400B9003108BA003208BB00BC018E30BD0234
:100DE400BD1F122F3D08803A8F3E0318022F00309A
:100DF400B3000030B2000030B1000030B000080091
:100E040001300310BC0CBB0CBA0CB90CFF3E031D23
:100E1400032F0130B4003408BD0703192D2F022F0E
:100E240018303D02031C2A2F0030B3000030B200FA
:100E34000030B1000030B00008000130B4000310ED
:100E4400B90DBA0DBB0DBC0DB40B212F0130BD0281
:100E54003D08031D1F2F380803193B2FB909BA0990
:100E6400BB09BC09B90A0319BA0A0319BB0A031955
:100E7400BC0A3C08B3003B08B2003A08B100390888
:100E8400B0000800831203132308A6002408A70057
:100E94002508A8000310270D280DA9002908AE0075
:100EA4002E08031D5C2F0030A0000030A10000308C
:100EB400A20008002008A6002108A7002208A80014
:100EC4000310270D280DA9002908AF002F08031DC2
:100ED400722F0030A0000030A1000030A2000800F2
:100EE4000030AB000030AC000030AD0089302F077B
:100EF400A6002608AE022308A6002408A700250899
:100F0400A80010300310A80CA70CA60CFF3E031D6C
:100F1400842F2608A9002908AF002008A60021086C
:100F2400A7002208A80010300310A80CA70CA60CD8
:100F3400FF3E031D962F2608A9002908AF0680301E
:100F4400A6002608AF05A417FF30A305FF30A405AB
:100F54000030A505A117FF30A005FF30A105003022
:100F6400A2051830A6002608AA0001300310AB0D14
:100F7400AC0DAD0DFF3E031DB82F22082502031D45
:100F8400C92F21082402031DC92F20082302031C92
:100F9400D62F2008A3022108031C210FA402220833
:100FA400031C220AA5022B1401300310A30DA40D67
:100FB400A50DFF3E031DD72F0130AA02031DB72F35
:100FC4002B08F0002C08F1002D08F2002E08A600D2
:100FD4002608F3002F08A7002708F4000A128A1134
:100FE400BF25700883120313A0007108A1007208C2
:0C0FF400A200080083010A128A112B2EB3
:02400E0031FF80
:00000001FF
